{
  "address": "0x9fE46736679d2D9a65F0992F2272dE9f3c7fa6e0",
  "abi": [
    {
      "anonymous": false,
      "inputs": [
        {
          "indexed": true,
          "internalType": "address",
          "name": "previousOwner",
          "type": "address"
        },
        {
          "indexed": true,
          "internalType": "address",
          "name": "newOwner",
          "type": "address"
        }
      ],
      "name": "OwnershipTransferred",
      "type": "event"
    },
    {
      "inputs": [
        {
          "internalType": "address",
          "name": "_tokenSell",
          "type": "address"
        },
        {
          "internalType": "address",
          "name": "_tokenBuy",
          "type": "address"
        },
        {
          "internalType": "uint256",
          "name": "_amountToSell",
          "type": "uint256"
        },
        {
          "internalType": "uint256",
          "name": "_minAmountToBuy",
          "type": "uint256"
        },
        {
          "internalType": "uint256[]",
          "name": "_distribution",
          "type": "uint256[]"
        },
        {
          "internalType": "address",
          "name": "_recipient",
          "type": "address"
        }
      ],
      "name": "exchange",
      "outputs": [],
      "stateMutability": "nonpayable",
      "type": "function"
    },
    {
      "inputs": [],
      "name": "owner",
      "outputs": [
        {
          "internalType": "address",
          "name": "",
          "type": "address"
        }
      ],
      "stateMutability": "view",
      "type": "function"
    },
    {
      "inputs": [],
      "name": "renounceOwnership",
      "outputs": [],
      "stateMutability": "nonpayable",
      "type": "function"
    },
    {
      "inputs": [
        {
          "internalType": "address",
          "name": "_oneInchAddress",
          "type": "address"
        }
      ],
      "name": "setOneInch",
      "outputs": [],
      "stateMutability": "nonpayable",
      "type": "function"
    },
    {
      "inputs": [
        {
          "internalType": "address",
          "name": "newOwner",
          "type": "address"
        }
      ],
      "name": "transferOwnership",
      "outputs": [],
      "stateMutability": "nonpayable",
      "type": "function"
    }
  ],
  "transactionHash": "0x9358d3e2b7bda2a75f490832aba06582a7b50e670e04ce8834864c7c745ef797",
  "args": [],
  "solcInputHash": "1339af0bf77482572d8718b690a168d0",
  "bytecode": "0x608060405234801561001057600080fd5b5060006100246001600160e01b0361007316565b600080546001600160a01b0319166001600160a01b0383169081178255604051929350917f8be0079c531659141344cd1fd0a4f28419497f9722a3daafe3b4186f6b6457e0908290a350610077565b3390565b6109e6806100866000396000f3fe608060405234801561001057600080fd5b50600436106100575760003560e01c8063715018a61461005c5780638da5cb5b14610066578063a41bfc6a1461008a578063e554dd15146100b0578063f2fde38b14610183575b600080fd5b6100646101a9565b005b61006e61025d565b604080516001600160a01b039092168252519081900360200190f35b610064600480360360208110156100a057600080fd5b50356001600160a01b031661026c565b610064600480360360c08110156100c657600080fd5b6001600160a01b03823581169260208101359091169160408201359160608101359181019060a08101608082013564010000000081111561010657600080fd5b82018360208201111561011857600080fd5b8035906020019184602083028401116401000000008311171561013a57600080fd5b919080806020026020016040519081016040528093929190818152602001838360200280828437600092019190915250929550505090356001600160a01b031691506102f89050565b6100646004803603602081101561019957600080fd5b50356001600160a01b0316610487565b6101b1610591565b6000546001600160a01b03908116911614610213576040805162461bcd60e51b815260206004820181905260248201527f4f776e61626c653a2063616c6c6572206973206e6f7420746865206f776e6572604482015290519081900360640190fd5b600080546040516001600160a01b03909116907f8be0079c531659141344cd1fd0a4f28419497f9722a3daafe3b4186f6b6457e0908390a3600080546001600160a01b0319169055565b6000546001600160a01b031690565b610274610591565b6000546001600160a01b039081169116146102d6576040805162461bcd60e51b815260206004820181905260248201527f4f776e61626c653a2063616c6c6572206973206e6f7420746865206f776e6572604482015290519081900360640190fd5b600180546001600160a01b0319166001600160a01b0392909216919091179055565b6001546103109087906001600160a01b031686610595565b600154604051637153a8af60e11b81526001600160a01b038881166004830190815288821660248401526044830188905260648301879052600060a4840181905260c060848501908152875160c486015287519195939093169363e2a7515e938c938c938c938c938c938b93909260e4019060208087019102808383885b838110156103a657818101518382015260200161038e565b50505050905001975050505050505050602060405180830381600087803b1580156103d057600080fd5b505af11580156103e4573d6000803e3d6000fd5b505050506040513d60208110156103fa57600080fd5b50516040805163a9059cbb60e01b81526001600160a01b0385811660048301526024820184905291519293509088169163a9059cbb916044808201926020929091908290030181600087803b15801561045257600080fd5b505af1158015610466573d6000803e3d6000fd5b505050506040513d602081101561047c57600080fd5b505050505050505050565b61048f610591565b6000546001600160a01b039081169116146104f1576040805162461bcd60e51b815260206004820181905260248201527f4f776e61626c653a2063616c6c6572206973206e6f7420746865206f776e6572604482015290519081900360640190fd5b6001600160a01b0381166105365760405162461bcd60e51b81526004018080602001828103825260268152602001806109616026913960400191505060405180910390fd5b600080546040516001600160a01b03808516939216917f8be0079c531659141344cd1fd0a4f28419497f9722a3daafe3b4186f6b6457e091a3600080546001600160a01b0319166001600160a01b0392909216919091179055565b3390565b60408051636eb1769f60e11b81523060048201526001600160a01b03848116602483015291516000926106269285929188169163dd62ed3e91604480820192602092909190829003018186803b1580156105ee57600080fd5b505afa158015610602573d6000803e3d6000fd5b505050506040513d602081101561061857600080fd5b50519063ffffffff61068116565b604080516001600160a01b038616602482015260448082018490528251808303909101815260649091019091526020810180516001600160e01b031663095ea7b360e01b17905290915061067b9085906106e2565b50505050565b6000828201838110156106db576040805162461bcd60e51b815260206004820152601b60248201527f536166654d6174683a206164646974696f6e206f766572666c6f770000000000604482015290519081900360640190fd5b9392505050565b6060610737826040518060400160405280602081526020017f5361666545524332303a206c6f772d6c6576656c2063616c6c206661696c6564815250856001600160a01b03166107989092919063ffffffff16565b8051909150156107935780806020019051602081101561075657600080fd5b50516107935760405162461bcd60e51b815260040180806020018281038252602a815260200180610987602a913960400191505060405180910390fd5b505050565b60606107a784846000856107af565b949350505050565b60606107ba8561095a565b61080b576040805162461bcd60e51b815260206004820152601d60248201527f416464726573733a2063616c6c20746f206e6f6e2d636f6e7472616374000000604482015290519081900360640190fd5b60006060866001600160a01b031685876040518082805190602001908083835b6020831061084a5780518252601f19909201916020918201910161082b565b6001836020036101000a03801982511681845116808217855250505050505090500191505060006040518083038185875af1925050503d80600081146108ac576040519150601f19603f3d011682016040523d82523d6000602084013e6108b1565b606091505b509150915081156108c55791506107a79050565b8051156108d55780518082602001fd5b8360405162461bcd60e51b81526004018080602001828103825283818151815260200191508051906020019080838360005b8381101561091f578181015183820152602001610907565b50505050905090810190601f16801561094c5780820380516001836020036101000a031916815260200191505b509250505060405180910390fd5b3b15159056fe4f776e61626c653a206e6577206f776e657220697320746865207a65726f20616464726573735361666545524332303a204552433230206f7065726174696f6e20646964206e6f742073756363656564a2646970667358221220cb7e3172e795aba3527e41596858e08d176f7cdca5966ff6f6db99566ad68fc764736f6c63430006080033",
  "devdoc": {
    "methods": {
      "owner()": {
        "details": "Returns the address of the current owner."
      },
      "renounceOwnership()": {
        "details": "Leaves the contract without owner. It will not be possible to call `onlyOwner` functions anymore. Can only be called by the current owner.     * NOTE: Renouncing ownership will leave the contract without an owner, thereby removing any functionality that is only available to the owner."
      },
      "transferOwnership(address)": {
        "details": "Transfers ownership of the contract to a new account (`newOwner`). Can only be called by the current owner."
      }
    }
  },
  "userdoc": {
    "methods": {}
  },
  "storageLayout": {
    "storage": [
      {
        "astId": 313,
        "contract": "contracts/external/ExchangeAdaptor.sol:ExchangeAdaptor",
        "label": "_owner",
        "offset": 0,
        "slot": "0",
        "type": "t_address"
      },
      {
        "astId": 2762,
        "contract": "contracts/external/ExchangeAdaptor.sol:ExchangeAdaptor",
        "label": "oneInchExchange",
        "offset": 0,
        "slot": "1",
        "type": "t_contract(IOneSplit)2931"
      }
    ],
    "types": {
      "t_address": {
        "encoding": "inplace",
        "label": "address",
        "numberOfBytes": "20"
      },
      "t_contract(IOneSplit)2931": {
        "encoding": "inplace",
        "label": "contract IOneSplit",
        "numberOfBytes": "20"
      }
    }
  }
}