{
  "address": "0x9fE46736679d2D9a65F0992F2272dE9f3c7fa6e0",
  "abi": [
    {
      "inputs": [
        {
          "internalType": "address",
          "name": "_oneInchAddress",
          "type": "address"
        }
      ],
      "stateMutability": "nonpayable",
      "type": "constructor"
    },
    {
      "anonymous": false,
      "inputs": [
        {
          "indexed": true,
          "internalType": "address",
          "name": "previousOwner",
          "type": "address"
        },
        {
          "indexed": true,
          "internalType": "address",
          "name": "newOwner",
          "type": "address"
        }
      ],
      "name": "OwnershipTransferred",
      "type": "event"
    },
    {
      "inputs": [
        {
          "internalType": "address",
          "name": "_tokenSell",
          "type": "address"
        },
        {
          "internalType": "address",
          "name": "_tokenBuy",
          "type": "address"
        },
        {
          "internalType": "uint256",
          "name": "_amountToSell",
          "type": "uint256"
        },
        {
          "internalType": "uint256",
          "name": "_minAmountToBuy",
          "type": "uint256"
        },
        {
          "internalType": "uint256[]",
          "name": "_distribution",
          "type": "uint256[]"
        },
        {
          "internalType": "address",
          "name": "_recipient",
          "type": "address"
        }
      ],
      "name": "exchange",
      "outputs": [],
      "stateMutability": "nonpayable",
      "type": "function"
    },
    {
      "inputs": [],
      "name": "getOneInchAddress",
      "outputs": [
        {
          "internalType": "address",
          "name": "",
          "type": "address"
        }
      ],
      "stateMutability": "view",
      "type": "function"
    },
    {
      "inputs": [],
      "name": "owner",
      "outputs": [
        {
          "internalType": "address",
          "name": "",
          "type": "address"
        }
      ],
      "stateMutability": "view",
      "type": "function"
    },
    {
      "inputs": [],
      "name": "renounceOwnership",
      "outputs": [],
      "stateMutability": "nonpayable",
      "type": "function"
    },
    {
      "inputs": [
        {
          "internalType": "address",
          "name": "_oneInchAddress",
          "type": "address"
        }
      ],
      "name": "setOneInch",
      "outputs": [],
      "stateMutability": "nonpayable",
      "type": "function"
    },
    {
      "inputs": [
        {
          "internalType": "address",
          "name": "newOwner",
          "type": "address"
        }
      ],
      "name": "transferOwnership",
      "outputs": [],
      "stateMutability": "nonpayable",
      "type": "function"
    }
  ],
  "transactionHash": "0xebe1d10b88a6012b003223b41bb3540bee1113c99c7b2b6944adb29930324561",
  "args": [
    "0xC586BeF4a0992C495Cf22e1aeEE4E446CECDee0E"
  ],
  "solcInputHash": "4d1da20ce8e5a1728b05b26911692c01",
  "bytecode": "0x608060405234801561001057600080fd5b506040516109eb3803806109eb8339818101604052602081101561003357600080fd5b505160006100486001600160e01b036100aa16565b600080546001600160a01b0319166001600160a01b0383169081178255604051929350917f8be0079c531659141344cd1fd0a4f28419497f9722a3daafe3b4186f6b6457e0908290a3506100a4816001600160e01b036100ae16565b50610143565b3390565b6100bf6001600160e01b036100aa16565b6000546001600160a01b03908116911614610121576040805162461bcd60e51b815260206004820181905260248201527f4f776e61626c653a2063616c6c6572206973206e6f7420746865206f776e6572604482015290519081900360640190fd5b600180546001600160a01b0319166001600160a01b0392909216919091179055565b610899806101526000396000f3fe608060405234801561001057600080fd5b50600436106100625760003560e01c8063450faf3214610067578063715018a61461008b5780638da5cb5b14610095578063a41bfc6a1461009d578063e554dd15146100c3578063f2fde38b14610196575b600080fd5b61006f6101bc565b604080516001600160a01b039092168252519081900360200190f35b6100936101cb565b005b61006f61027f565b610093600480360360208110156100b357600080fd5b50356001600160a01b031661028e565b610093600480360360c08110156100d957600080fd5b6001600160a01b03823581169260208101359091169160408201359160608101359181019060a08101608082013564010000000081111561011957600080fd5b82018360208201111561012b57600080fd5b8035906020019184602083028401116401000000008311171561014d57600080fd5b919080806020026020016040519081016040528093929190818152602001838360200280828437600092019190915250929550505090356001600160a01b0316915061031a9050565b610093600480360360208110156101ac57600080fd5b50356001600160a01b031661033a565b6001546001600160a01b031690565b6101d3610444565b6000546001600160a01b03908116911614610235576040805162461bcd60e51b815260206004820181905260248201527f4f776e61626c653a2063616c6c6572206973206e6f7420746865206f776e6572604482015290519081900360640190fd5b600080546040516001600160a01b03909116907f8be0079c531659141344cd1fd0a4f28419497f9722a3daafe3b4186f6b6457e0908390a3600080546001600160a01b0319169055565b6000546001600160a01b031690565b610296610444565b6000546001600160a01b039081169116146102f8576040805162461bcd60e51b815260206004820181905260248201527f4f776e61626c653a2063616c6c6572206973206e6f7420746865206f776e6572604482015290519081900360640190fd5b600180546001600160a01b0319166001600160a01b0392909216919091179055565b6001546103329087906001600160a01b031686610448565b505050505050565b610342610444565b6000546001600160a01b039081169116146103a4576040805162461bcd60e51b815260206004820181905260248201527f4f776e61626c653a2063616c6c6572206973206e6f7420746865206f776e6572604482015290519081900360640190fd5b6001600160a01b0381166103e95760405162461bcd60e51b81526004018080602001828103825260268152602001806108146026913960400191505060405180910390fd5b600080546040516001600160a01b03808516939216917f8be0079c531659141344cd1fd0a4f28419497f9722a3daafe3b4186f6b6457e091a3600080546001600160a01b0319166001600160a01b0392909216919091179055565b3390565b60408051636eb1769f60e11b81523060048201526001600160a01b03848116602483015291516000926104d99285929188169163dd62ed3e91604480820192602092909190829003018186803b1580156104a157600080fd5b505afa1580156104b5573d6000803e3d6000fd5b505050506040513d60208110156104cb57600080fd5b50519063ffffffff61053416565b604080516001600160a01b038616602482015260448082018490528251808303909101815260649091019091526020810180516001600160e01b031663095ea7b360e01b17905290915061052e908590610595565b50505050565b60008282018381101561058e576040805162461bcd60e51b815260206004820152601b60248201527f536166654d6174683a206164646974696f6e206f766572666c6f770000000000604482015290519081900360640190fd5b9392505050565b60606105ea826040518060400160405280602081526020017f5361666545524332303a206c6f772d6c6576656c2063616c6c206661696c6564815250856001600160a01b031661064b9092919063ffffffff16565b8051909150156106465780806020019051602081101561060957600080fd5b50516106465760405162461bcd60e51b815260040180806020018281038252602a81526020018061083a602a913960400191505060405180910390fd5b505050565b606061065a8484600085610662565b949350505050565b606061066d8561080d565b6106be576040805162461bcd60e51b815260206004820152601d60248201527f416464726573733a2063616c6c20746f206e6f6e2d636f6e7472616374000000604482015290519081900360640190fd5b60006060866001600160a01b031685876040518082805190602001908083835b602083106106fd5780518252601f1990920191602091820191016106de565b6001836020036101000a03801982511681845116808217855250505050505090500191505060006040518083038185875af1925050503d806000811461075f576040519150601f19603f3d011682016040523d82523d6000602084013e610764565b606091505b5091509150811561077857915061065a9050565b8051156107885780518082602001fd5b8360405162461bcd60e51b81526004018080602001828103825283818151815260200191508051906020019080838360005b838110156107d25781810151838201526020016107ba565b50505050905090810190601f1680156107ff5780820380516001836020036101000a031916815260200191505b509250505060405180910390fd5b3b15159056fe4f776e61626c653a206e6577206f776e657220697320746865207a65726f20616464726573735361666545524332303a204552433230206f7065726174696f6e20646964206e6f742073756363656564a264697066735822122057a189a4f18968c0ff29d3626f90990cf972889cdc3554595454dfe22e1e93f064736f6c63430006080033",
  "devdoc": {
    "methods": {
      "owner()": {
        "details": "Returns the address of the current owner."
      },
      "renounceOwnership()": {
        "details": "Leaves the contract without owner. It will not be possible to call `onlyOwner` functions anymore. Can only be called by the current owner.     * NOTE: Renouncing ownership will leave the contract without an owner, thereby removing any functionality that is only available to the owner."
      },
      "transferOwnership(address)": {
        "details": "Transfers ownership of the contract to a new account (`newOwner`). Can only be called by the current owner."
      }
    }
  },
  "userdoc": {
    "methods": {}
  },
  "storageLayout": {
    "storage": [
      {
        "astId": 313,
        "contract": "contracts/external/ExchangeAdaptor.sol:ExchangeAdaptor",
        "label": "_owner",
        "offset": 0,
        "slot": "0",
        "type": "t_address"
      },
      {
        "astId": 2762,
        "contract": "contracts/external/ExchangeAdaptor.sol:ExchangeAdaptor",
        "label": "oneInchExchange",
        "offset": 0,
        "slot": "1",
        "type": "t_contract(IOneSplit)2928"
      }
    ],
    "types": {
      "t_address": {
        "encoding": "inplace",
        "label": "address",
        "numberOfBytes": "20"
      },
      "t_contract(IOneSplit)2928": {
        "encoding": "inplace",
        "label": "contract IOneSplit",
        "numberOfBytes": "20"
      }
    }
  }
}