{
  "address": "0x7c2C195CD6D34B8F845992d380aADB2730bB9C6F",
  "abi": [
    {
      "inputs": [],
      "stateMutability": "nonpayable",
      "type": "constructor"
    },
    {
      "anonymous": false,
      "inputs": [
        {
          "indexed": true,
          "internalType": "bytes32",
          "name": "role",
          "type": "bytes32"
        },
        {
          "indexed": true,
          "internalType": "bytes32",
          "name": "previousAdminRole",
          "type": "bytes32"
        },
        {
          "indexed": true,
          "internalType": "bytes32",
          "name": "newAdminRole",
          "type": "bytes32"
        }
      ],
      "name": "RoleAdminChanged",
      "type": "event"
    },
    {
      "anonymous": false,
      "inputs": [
        {
          "indexed": true,
          "internalType": "bytes32",
          "name": "role",
          "type": "bytes32"
        },
        {
          "indexed": true,
          "internalType": "address",
          "name": "account",
          "type": "address"
        },
        {
          "indexed": true,
          "internalType": "address",
          "name": "sender",
          "type": "address"
        }
      ],
      "name": "RoleGranted",
      "type": "event"
    },
    {
      "anonymous": false,
      "inputs": [
        {
          "indexed": true,
          "internalType": "bytes32",
          "name": "role",
          "type": "bytes32"
        },
        {
          "indexed": true,
          "internalType": "address",
          "name": "account",
          "type": "address"
        },
        {
          "indexed": true,
          "internalType": "address",
          "name": "sender",
          "type": "address"
        }
      ],
      "name": "RoleRevoked",
      "type": "event"
    },
    {
      "anonymous": false,
      "inputs": [
        {
          "indexed": false,
          "internalType": "uint256",
          "name": "_streamId",
          "type": "uint256"
        },
        {
          "indexed": false,
          "internalType": "address",
          "name": "_recipient",
          "type": "address"
        },
        {
          "indexed": false,
          "internalType": "uint256",
          "name": "_amount",
          "type": "uint256"
        },
        {
          "indexed": false,
          "internalType": "uint256",
          "name": "_amountRemaining",
          "type": "uint256"
        },
        {
          "indexed": false,
          "internalType": "uint256",
          "name": "_timeOfWithdrawal",
          "type": "uint256"
        }
      ],
      "name": "StreamClosed",
      "type": "event"
    },
    {
      "anonymous": false,
      "inputs": [
        {
          "indexed": false,
          "internalType": "uint256",
          "name": "_streamId",
          "type": "uint256"
        },
        {
          "indexed": false,
          "internalType": "address",
          "name": "_token",
          "type": "address"
        },
        {
          "indexed": false,
          "internalType": "address",
          "name": "_sender",
          "type": "address"
        },
        {
          "indexed": false,
          "internalType": "address",
          "name": "_recipient",
          "type": "address"
        },
        {
          "indexed": false,
          "internalType": "uint256",
          "name": "_deposit",
          "type": "uint256"
        },
        {
          "indexed": false,
          "internalType": "uint256",
          "name": "_startTime",
          "type": "uint256"
        },
        {
          "indexed": false,
          "internalType": "uint256",
          "name": "_stopTime",
          "type": "uint256"
        }
      ],
      "name": "StreamCreated",
      "type": "event"
    },
    {
      "anonymous": false,
      "inputs": [
        {
          "indexed": false,
          "internalType": "uint256",
          "name": "_streamId",
          "type": "uint256"
        },
        {
          "indexed": false,
          "internalType": "address",
          "name": "_token",
          "type": "address"
        },
        {
          "indexed": false,
          "internalType": "address",
          "name": "_recipient",
          "type": "address"
        },
        {
          "indexed": false,
          "internalType": "uint256",
          "name": "_amount",
          "type": "uint256"
        },
        {
          "indexed": false,
          "internalType": "uint256",
          "name": "_amountRemaining",
          "type": "uint256"
        },
        {
          "indexed": false,
          "internalType": "uint256",
          "name": "_timeOfWithdrawal",
          "type": "uint256"
        }
      ],
      "name": "StreamWithdrawnFrom",
      "type": "event"
    },
    {
      "inputs": [],
      "name": "DEFAULT_ADMIN_ROLE",
      "outputs": [
        {
          "internalType": "bytes32",
          "name": "",
          "type": "bytes32"
        }
      ],
      "stateMutability": "view",
      "type": "function"
    },
    {
      "inputs": [],
      "name": "STREAM_ADMIN",
      "outputs": [
        {
          "internalType": "bytes32",
          "name": "",
          "type": "bytes32"
        }
      ],
      "stateMutability": "view",
      "type": "function"
    },
    {
      "inputs": [],
      "name": "STREAM_OPERATOR",
      "outputs": [
        {
          "internalType": "bytes32",
          "name": "",
          "type": "bytes32"
        }
      ],
      "stateMutability": "view",
      "type": "function"
    },
    {
      "inputs": [
        {
          "internalType": "address",
          "name": "_sender",
          "type": "address"
        },
        {
          "internalType": "address",
          "name": "_recipient",
          "type": "address"
        },
        {
          "internalType": "uint256",
          "name": "_deposit",
          "type": "uint256"
        },
        {
          "internalType": "address",
          "name": "_token",
          "type": "address"
        },
        {
          "internalType": "uint256",
          "name": "_startTime",
          "type": "uint256"
        },
        {
          "internalType": "uint256",
          "name": "_stopTime",
          "type": "uint256"
        }
      ],
      "name": "createStream",
      "outputs": [
        {
          "internalType": "uint256",
          "name": "",
          "type": "uint256"
        }
      ],
      "stateMutability": "nonpayable",
      "type": "function"
    },
    {
      "inputs": [
        {
          "internalType": "bytes32",
          "name": "role",
          "type": "bytes32"
        }
      ],
      "name": "getRoleAdmin",
      "outputs": [
        {
          "internalType": "bytes32",
          "name": "",
          "type": "bytes32"
        }
      ],
      "stateMutability": "view",
      "type": "function"
    },
    {
      "inputs": [
        {
          "internalType": "bytes32",
          "name": "role",
          "type": "bytes32"
        },
        {
          "internalType": "uint256",
          "name": "index",
          "type": "uint256"
        }
      ],
      "name": "getRoleMember",
      "outputs": [
        {
          "internalType": "address",
          "name": "",
          "type": "address"
        }
      ],
      "stateMutability": "view",
      "type": "function"
    },
    {
      "inputs": [
        {
          "internalType": "bytes32",
          "name": "role",
          "type": "bytes32"
        }
      ],
      "name": "getRoleMemberCount",
      "outputs": [
        {
          "internalType": "uint256",
          "name": "",
          "type": "uint256"
        }
      ],
      "stateMutability": "view",
      "type": "function"
    },
    {
      "inputs": [
        {
          "internalType": "uint256",
          "name": "_streamId",
          "type": "uint256"
        }
      ],
      "name": "getStream",
      "outputs": [
        {
          "internalType": "address",
          "name": "sender",
          "type": "address"
        },
        {
          "internalType": "address",
          "name": "recipient",
          "type": "address"
        },
        {
          "internalType": "uint256",
          "name": "deposit",
          "type": "uint256"
        },
        {
          "internalType": "address",
          "name": "tokenAddress",
          "type": "address"
        },
        {
          "internalType": "uint256",
          "name": "startTime",
          "type": "uint256"
        },
        {
          "internalType": "uint256",
          "name": "stopTime",
          "type": "uint256"
        },
        {
          "internalType": "uint256",
          "name": "remainingBalance",
          "type": "uint256"
        },
        {
          "internalType": "uint256",
          "name": "ratePerSecond",
          "type": "uint256"
        },
        {
          "internalType": "uint256",
          "name": "balanceAccrued",
          "type": "uint256"
        }
      ],
      "stateMutability": "view",
      "type": "function"
    },
    {
      "inputs": [
        {
          "internalType": "uint256",
          "name": "_streamId",
          "type": "uint256"
        }
      ],
      "name": "getStreamTokenAddress",
      "outputs": [
        {
          "internalType": "address",
          "name": "token",
          "type": "address"
        }
      ],
      "stateMutability": "view",
      "type": "function"
    },
    {
      "inputs": [
        {
          "internalType": "bytes32",
          "name": "role",
          "type": "bytes32"
        },
        {
          "internalType": "address",
          "name": "account",
          "type": "address"
        }
      ],
      "name": "grantRole",
      "outputs": [],
      "stateMutability": "nonpayable",
      "type": "function"
    },
    {
      "inputs": [
        {
          "internalType": "bytes32",
          "name": "role",
          "type": "bytes32"
        },
        {
          "internalType": "address",
          "name": "account",
          "type": "address"
        }
      ],
      "name": "hasRole",
      "outputs": [
        {
          "internalType": "bool",
          "name": "",
          "type": "bool"
        }
      ],
      "stateMutability": "view",
      "type": "function"
    },
    {
      "inputs": [],
      "name": "nextStreamId",
      "outputs": [
        {
          "internalType": "uint256",
          "name": "",
          "type": "uint256"
        }
      ],
      "stateMutability": "view",
      "type": "function"
    },
    {
      "inputs": [
        {
          "internalType": "bytes32",
          "name": "role",
          "type": "bytes32"
        },
        {
          "internalType": "address",
          "name": "account",
          "type": "address"
        }
      ],
      "name": "renounceRole",
      "outputs": [],
      "stateMutability": "nonpayable",
      "type": "function"
    },
    {
      "inputs": [
        {
          "internalType": "bytes32",
          "name": "role",
          "type": "bytes32"
        },
        {
          "internalType": "address",
          "name": "account",
          "type": "address"
        }
      ],
      "name": "revokeRole",
      "outputs": [],
      "stateMutability": "nonpayable",
      "type": "function"
    },
    {
      "inputs": [
        {
          "internalType": "address",
          "name": "_who",
          "type": "address"
        }
      ],
      "name": "setStreamOperator",
      "outputs": [],
      "stateMutability": "nonpayable",
      "type": "function"
    },
    {
      "inputs": [
        {
          "internalType": "uint256",
          "name": "_streamId",
          "type": "uint256"
        },
        {
          "internalType": "uint256",
          "name": "_amount",
          "type": "uint256"
        },
        {
          "internalType": "address",
          "name": "_recipient",
          "type": "address"
        }
      ],
      "name": "withdraw",
      "outputs": [],
      "stateMutability": "nonpayable",
      "type": "function"
    }
  ],
  "transactionHash": "0x20aab9536469991fe63a57e75800459eef3b5c0c7250b280a3bd022d962c4e61",
  "args": [],
  "solcInputHash": "0x94964abcd13ebfa205d1297dcb1afbb3c0d2ac31677215eaf03de0a3e6ec1345",
  "bytecode": "0x60806040523480156200001157600080fd5b506200005960405180807f53545245414d5f41444d494e0000000000000000000000000000000000000000815250600c019050604051809103902033620000e360201b60201c565b620000d560405180807f53545245414d5f4f50455241544f520000000000000000000000000000000000815250600f019050604051809103902060405180807f53545245414d5f41444d494e0000000000000000000000000000000000000000815250600c0190506040518091039020620000f960201b60201c565b6001600281905550620002db565b620000f582826200015b60201b60201c565b5050565b8060008084815260200190815260200160002060020154837fbd79b86ffe0ab8e8776151514217cd7cacd52c909f66475c3af44e129f0b00ff60405160405180910390a480600080848152602001908152602001600020600201819055505050565b6200018981600080858152602001908152602001600020600001620001fe60201b620016e71790919060201c565b15620001fa576200019f6200023660201b60201c565b73ffffffffffffffffffffffffffffffffffffffff168173ffffffffffffffffffffffffffffffffffffffff16837f2f8788117e7eff1d82e926ec794901d17c78024a50270940304540a733656f0d60405160405180910390a45b5050565b60006200022e836000018373ffffffffffffffffffffffffffffffffffffffff1660001b6200023e60201b60201c565b905092915050565b600033905090565b6000620002528383620002b860201b60201c565b620002ad578260000182908060018154018082558091505060019003906000526020600020016000909190919091505582600001805490508360010160008481526020019081526020016000208190555060019050620002b2565b600090505b92915050565b600080836001016000848152602001908152602001600020541415905092915050565b61216a80620002eb6000396000f3fe608060405234801561001057600080fd5b50600436106101005760003560e01c806391d1485411610097578063c843dbc111610066578063c843dbc1146104d3578063ca15c87314610541578063d547741f14610583578063fd59e134146105d157610100565b806391d14854146103ed57806398615fbc14610453578063a217fddf14610497578063b08a2153146104b557610100565b80632f2ff15d116100d35780632f2ff15d146101db57806336568abe14610229578063894e9a0d146102775780639010d07c1461037557610100565b80630ad58d2f1461010557806318ce0de71461015d5780631e99d5691461017b578063248a9ca314610199575b600080fd5b61015b6004803603606081101561011b57600080fd5b810190808035906020019092919080359060200190929190803573ffffffffffffffffffffffffffffffffffffffff169060200190929190505050610687565b005b6101656109ec565b6040518082815260200191505060405180910390f35b610183610a25565b6040518082815260200191505060405180910390f35b6101c5600480360360208110156101af57600080fd5b8101908080359060200190929190505050610a2b565b6040518082815260200191505060405180910390f35b610227600480360360408110156101f157600080fd5b8101908080359060200190929190803573ffffffffffffffffffffffffffffffffffffffff169060200190929190505050610a4a565b005b6102756004803603604081101561023f57600080fd5b8101908080359060200190929190803573ffffffffffffffffffffffffffffffffffffffff169060200190929190505050610ad3565b005b6102a36004803603602081101561028d57600080fd5b8101908080359060200190929190505050610b6c565b604051808a73ffffffffffffffffffffffffffffffffffffffff1673ffffffffffffffffffffffffffffffffffffffff1681526020018973ffffffffffffffffffffffffffffffffffffffff1673ffffffffffffffffffffffffffffffffffffffff1681526020018881526020018773ffffffffffffffffffffffffffffffffffffffff1673ffffffffffffffffffffffffffffffffffffffff168152602001868152602001858152602001848152602001838152602001828152602001995050505050505050505060405180910390f35b6103ab6004803603604081101561038b57600080fd5b810190808035906020019092919080359060200190929190505050610d52565b604051808273ffffffffffffffffffffffffffffffffffffffff1673ffffffffffffffffffffffffffffffffffffffff16815260200191505060405180910390f35b6104396004803603604081101561040357600080fd5b8101908080359060200190929190803573ffffffffffffffffffffffffffffffffffffffff169060200190929190505050610d83565b604051808215151515815260200191505060405180910390f35b6104956004803603602081101561046957600080fd5b81019080803573ffffffffffffffffffffffffffffffffffffffff169060200190929190505050610db4565b005b61049f610ea7565b6040518082815260200191505060405180910390f35b6104bd610eae565b6040518082815260200191505060405180910390f35b6104ff600480360360208110156104e957600080fd5b8101908080359060200190929190505050610ee7565b604051808273ffffffffffffffffffffffffffffffffffffffff1673ffffffffffffffffffffffffffffffffffffffff16815260200191505060405180910390f35b61056d6004803603602081101561055757600080fd5b8101908080359060200190929190505050610f27565b6040518082815260200191505060405180910390f35b6105cf6004803603604081101561059957600080fd5b8101908080359060200190929190803573ffffffffffffffffffffffffffffffffffffffff169060200190929190505050610f4d565b005b610671600480360360c08110156105e757600080fd5b81019080803573ffffffffffffffffffffffffffffffffffffffff169060200190929190803573ffffffffffffffffffffffffffffffffffffffff16906020019092919080359060200190929190803573ffffffffffffffffffffffffffffffffffffffff1690602001909291908035906020019092919080359060200190929190505050610fd6565b6040518082815260200191505060405180910390f35b6106c660405180807f53545245414d5f4f50455241544f520000000000000000000000000000000000815250600f019050604051809103902033610d83565b610738576040517f08c379a00000000000000000000000000000000000000000000000000000000081526004018080602001828103825260138152602001807f4e6f742053747265616d204f70657261746f720000000000000000000000000081525060200191505060405180910390fd5b8282828073ffffffffffffffffffffffffffffffffffffffff166001600085815260200190815260200160002060070160009054906101000a900473ffffffffffffffffffffffffffffffffffffffff1673ffffffffffffffffffffffffffffffffffffffff1614610812576040517f08c379a00000000000000000000000000000000000000000000000000000000081526004018080602001828103825260148152602001807f4e6f74207468652073747265616d206f776e657200000000000000000000000081525060200191505060405180910390fd5b816001600085815260200190815260200160002060040154101561089e576040517f08c379a000000000000000000000000000000000000000000000000000000000815260040180806020018281038252601e8152602001807f4e6f7420656e6f7567682062616c616e636520746f207769746864726177000081525060200191505060405180910390fd5b6108c785600160008981526020019081526020016000206004015461171790919063ffffffff16565b60016000888152602001908152602001600020600401819055507fe8569bdb45241a875f895e48e45462a6211a961bed91b5f6f7ab854389702ede866001600089815260200190815260200160002060060160009054906101000a900473ffffffffffffffffffffffffffffffffffffffff168688600160008c81526020019081526020016000206004015442604051808781526020018673ffffffffffffffffffffffffffffffffffffffff1673ffffffffffffffffffffffffffffffffffffffff1681526020018573ffffffffffffffffffffffffffffffffffffffff1673ffffffffffffffffffffffffffffffffffffffff168152602001848152602001838152602001828152602001965050505050505060405180910390a1505050505050565b60405180807f53545245414d5f41444d494e0000000000000000000000000000000000000000815250600c019050604051809103902081565b60025481565b6000806000838152602001908152602001600020600201549050919050565b610a7060008084815260200190815260200160002060020154610a6b611761565b610d83565b610ac5576040517f08c379a000000000000000000000000000000000000000000000000000000000815260040180806020018281038252602f815260200180611fac602f913960400191505060405180910390fd5b610acf8282611769565b5050565b610adb611761565b73ffffffffffffffffffffffffffffffffffffffff168173ffffffffffffffffffffffffffffffffffffffff1614610b5e576040517f08c379a000000000000000000000000000000000000000000000000000000000815260040180806020018281038252602f815260200180612106602f913960400191505060405180910390fd5b610b6882826117fc565b5050565b6000806000806000806000806000896001600082815260200190815260200160002060060160149054906101000a900460ff16610c11576040517f08c379a00000000000000000000000000000000000000000000000000000000081526004018080602001828103825260158152602001807f53747265616d20646f6573206e6f74206578697374000000000000000000000081525060200191505060405180910390fd5b600160008c815260200190815260200160002060050160009054906101000a900473ffffffffffffffffffffffffffffffffffffffff169950600160008c815260200190815260200160002060070160009054906101000a900473ffffffffffffffffffffffffffffffffffffffff169850600160008c8152602001908152602001600020600201549750600160008c815260200190815260200160002060060160009054906101000a900473ffffffffffffffffffffffffffffffffffffffff169650600160008c8152602001908152602001600020600001549550600160008c8152602001908152602001600020600101549450600160008c8152602001908152602001600020600401549350600160008c8152602001908152602001600020600301549250610d428b61188f565b9150509193959799909294969850565b6000610d7b826000808681526020019081526020016000206000016118c990919063ffffffff16565b905092915050565b6000610dac826000808681526020019081526020016000206000016118e390919063ffffffff16565b905092915050565b610df360405180807f53545245414d5f41444d494e0000000000000000000000000000000000000000815250600c019050604051809103902033610d83565b610e65576040517f08c379a00000000000000000000000000000000000000000000000000000000081526004018080602001828103825260108152602001807f4e6f742053747265616d2041646d696e0000000000000000000000000000000081525060200191505060405180910390fd5b610ea460405180807f53545245414d5f4f50455241544f520000000000000000000000000000000000815250600f019050604051809103902082610a4a565b50565b6000801b81565b60405180807f53545245414d5f4f50455241544f520000000000000000000000000000000000815250600f019050604051809103902081565b60006001600083815260200190815260200160002060060160009054906101000a900473ffffffffffffffffffffffffffffffffffffffff169050919050565b6000610f46600080848152602001908152602001600020600001611913565b9050919050565b610f7360008084815260200190815260200160002060020154610f6e611761565b610d83565b610fc8576040517f08c379a000000000000000000000000000000000000000000000000000000000815260040180806020018281038252603081526020018061203e6030913960400191505060405180910390fd5b610fd282826117fc565b5050565b600061101760405180807f53545245414d5f4f50455241544f520000000000000000000000000000000000815250600f019050604051809103902033610d83565b611089576040517f08c379a00000000000000000000000000000000000000000000000000000000081526004018080602001828103825260138152602001807f4e6f742053747265616d204f70657261746f720000000000000000000000000081525060200191505060405180910390fd5b858584600073ffffffffffffffffffffffffffffffffffffffff168373ffffffffffffffffffffffffffffffffffffffff161415611112576040517f08c379a00000000000000000000000000000000000000000000000000000000081526004018080602001828103825260278152602001806120df6027913960400191505060405180910390fd5b3073ffffffffffffffffffffffffffffffffffffffff168373ffffffffffffffffffffffffffffffffffffffff161415611197576040517f08c379a000000000000000000000000000000000000000000000000000000000815260040180806020018281038252602c8152602001806120b3602c913960400191505060405180910390fd5b3373ffffffffffffffffffffffffffffffffffffffff168373ffffffffffffffffffffffffffffffffffffffff16141561121c576040517f08c379a000000000000000000000000000000000000000000000000000000000815260040180806020018281038252602181526020018061201d6021913960400191505060405180910390fd5b60008211611275576040517f08c379a000000000000000000000000000000000000000000000000000000000815260040180806020018281038252602481526020018061206e6024913960400191505060405180910390fd5b428110156112ce576040517f08c379a0000000000000000000000000000000000000000000000000000000008152600401808060200182810382526021815260200180611ffc6021913960400191505060405180910390fd5b6112d88686611928565b61132d576040517f08c379a0000000000000000000000000000000000000000000000000000000008152600401808060200182810382526021815260200180611fdb6021913960400191505060405180910390fd5b6000611342878761171790919063ffffffff16565b905060006113508a83611947565b9050600081116113c8576040517f08c379a000000000000000000000000000000000000000000000000000000000815260040180806020018281038252601f8152602001807f5261746520706572207365636f6e64206d7573742062652061626f766520300081525060200191505060405180910390fd5b600060025490506113e5600160025461196490919063ffffffff16565b6002819055506040518061014001604052808a81526020018981526020018c81526020018381526020018c81526020018e73ffffffffffffffffffffffffffffffffffffffff1681526020018b73ffffffffffffffffffffffffffffffffffffffff1681526020016001151581526020018d73ffffffffffffffffffffffffffffffffffffffff1681526020016000600281111561147f57fe5b81525060016000838152602001908152602001600020600082015181600001556020820151816001015560408201518160020155606082015181600301556080820151816004015560a08201518160050160006101000a81548173ffffffffffffffffffffffffffffffffffffffff021916908373ffffffffffffffffffffffffffffffffffffffff16021790555060c08201518160060160006101000a81548173ffffffffffffffffffffffffffffffffffffffff021916908373ffffffffffffffffffffffffffffffffffffffff16021790555060e08201518160060160146101000a81548160ff0219169083151502179055506101008201518160070160006101000a81548173ffffffffffffffffffffffffffffffffffffffff021916908373ffffffffffffffffffffffffffffffffffffffff1602179055506101208201518160070160146101000a81548160ff021916908360028111156115e257fe5b02179055509050507ea9034955474f85362d002c0f44ae19ded8500f3bcd141d665ffd0dd8cac2e2818b8f8f8f8e8e604051808881526020018773ffffffffffffffffffffffffffffffffffffffff1673ffffffffffffffffffffffffffffffffffffffff1681526020018673ffffffffffffffffffffffffffffffffffffffff1673ffffffffffffffffffffffffffffffffffffffff1681526020018573ffffffffffffffffffffffffffffffffffffffff1673ffffffffffffffffffffffffffffffffffffffff16815260200184815260200183815260200182815260200197505050505050505060405180910390a18096505050505050509695505050505050565b600061170f836000018373ffffffffffffffffffffffffffffffffffffffff1660001b6119ec565b905092915050565b600061175983836040518060400160405280601e81526020017f536166654d6174683a207375627472616374696f6e206f766572666c6f770000815250611a5c565b905092915050565b600033905090565b611790816000808581526020019081526020016000206000016116e790919063ffffffff16565b156117f85761179d611761565b73ffffffffffffffffffffffffffffffffffffffff168173ffffffffffffffffffffffffffffffffffffffff16837f2f8788117e7eff1d82e926ec794901d17c78024a50270940304540a733656f0d60405160405180910390a45b5050565b61182381600080858152602001908152602001600020600001611b1c90919063ffffffff16565b1561188b57611830611761565b73ffffffffffffffffffffffffffffffffffffffff168173ffffffffffffffffffffffffffffffffffffffff16837ff6391f5c32d9c69d2a47ea670b442974b53935d1edc7fd64eb21e047a839171b60405160405180910390a45b5050565b60006118c260016000848152602001908152602001600020600301546118b484611b4c565b611bea90919063ffffffff16565b9050919050565b60006118d88360000183611c70565b60001c905092915050565b600061190b836000018373ffffffffffffffffffffffffffffffffffffffff1660001b611cf3565b905092915050565b600061192182600001611d16565b9050919050565b60008061193e848461171790919063ffffffff16565b11905092915050565b600061195c8284611d2790919063ffffffff16565b905092915050565b6000808284019050838110156119e2576040517f08c379a000000000000000000000000000000000000000000000000000000000815260040180806020018281038252601b8152602001807f536166654d6174683a206164646974696f6e206f766572666c6f77000000000081525060200191505060405180910390fd5b8091505092915050565b60006119f88383611cf3565b611a51578260000182908060018154018082558091505060019003906000526020600020016000909190919091505582600001805490508360010160008481526020019081526020016000208190555060019050611a56565b600090505b92915050565b6000838311158290611b09576040517f08c379a00000000000000000000000000000000000000000000000000000000081526004018080602001828103825283818151815260200191508051906020019080838360005b83811015611ace578082015181840152602081019050611ab3565b50505050905090810190601f168015611afb5780820380516001836020036101000a031916815260200191505b509250505060405180910390fd5b5060008385039050809150509392505050565b6000611b44836000018373ffffffffffffffffffffffffffffffffffffffff1660001b611d71565b905092915050565b6000611b5782611e59565b15611b8c57611b8560016000848152602001908152602001600020600001544261171790919063ffffffff16565b9050611be5565b611b9582611e7d565b15611be057611bd96001600084815260200190815260200160002060000154600160008581526020019081526020016000206001015461171790919063ffffffff16565b9050611be5565b600090505b919050565b600080831415611bfd5760009050611c6a565b6000828402905082848281611c0e57fe5b0414611c65576040517f08c379a00000000000000000000000000000000000000000000000000000000081526004018080602001828103825260218152602001806120926021913960400191505060405180910390fd5b809150505b92915050565b600081836000018054905011611cd1576040517f08c379a0000000000000000000000000000000000000000000000000000000008152600401808060200182810382526022815260200180611f8a6022913960400191505060405180910390fd5b826000018281548110611ce057fe5b9060005260206000200154905092915050565b600080836001016000848152602001908152602001600020541415905092915050565b600081600001805490509050919050565b6000611d6983836040518060400160405280601a81526020017f536166654d6174683a206469766973696f6e206279207a65726f000000000000815250611ea0565b905092915050565b60008083600101600084815260200190815260200160002054905060008114611e4d5760006001820390506000600186600001805490500390506000866000018281548110611dbc57fe5b9060005260206000200154905080876000018481548110611dd957fe5b9060005260206000200181905550600183018760010160008381526020019081526020016000208190555086600001805480611e1157fe5b60019003818190600052602060002001600090559055866001016000878152602001908152602001600020600090556001945050505050611e53565b60009150505b92915050565b6000611e6482611f66565b8015611e765750611e7482611e7d565b155b9050919050565b600060016000838152602001908152602001600020600101544210159050919050565b60008083118290611f4c576040517f08c379a00000000000000000000000000000000000000000000000000000000081526004018080602001828103825283818151815260200191508051906020019080838360005b83811015611f11578082015181840152602081019050611ef6565b50505050905090810190601f168015611f3e5780820380516001836020036101000a031916815260200191505b509250505060405180910390fd5b506000838581611f5857fe5b049050809150509392505050565b60006001600083815260200190815260200160002060000154421015905091905056fe456e756d657261626c655365743a20696e646578206f7574206f6620626f756e6473416363657373436f6e74726f6c3a2073656e646572206d75737420626520616e2061646d696e20746f206772616e7453747265616d206d757374206c6173742061206c656173742061207365636f6e6443616e6e6f7420737461727420612073747265616d20696e20746865207061737443616e6e6f7420737461727420612073747265616d20746f20796f757273656c66416363657373436f6e74726f6c3a2073656e646572206d75737420626520616e2061646d696e20746f207265766f6b6543616e6e6f7420737461727420612073747265616d207769746820302062616c616e6365536166654d6174683a206d756c7469706c69636174696f6e206f766572666c6f7743616e6e6f7420737461727420612073747265616d20746f207468652073747265616d20636f6e747261637443616e6e6f7420737461727420612073747265616d20746f207468652030782061646472657373416363657373436f6e74726f6c3a2063616e206f6e6c792072656e6f756e636520726f6c657320666f722073656c66a2646970667358221220ae29abf861a3ee5cb3e6edd3350df530f374527a12962944dadd6864e9abb07764736f6c63430006080033",
  "devdoc": {
    "methods": {
      "getRoleAdmin(bytes32)": {
        "details": "Returns the admin role that controls `role`. See {grantRole} and {revokeRole}.     * To change a role's admin, use {_setRoleAdmin}."
      },
      "getRoleMember(bytes32,uint256)": {
        "details": "Returns one of the accounts that have `role`. `index` must be a value between 0 and {getRoleMemberCount}, non-inclusive.     * Role bearers are not sorted in any particular way, and their ordering may change at any point.     * WARNING: When using {getRoleMember} and {getRoleMemberCount}, make sure you perform all queries on the same block. See the following https://forum.openzeppelin.com/t/iterating-over-elements-on-enumerableset-in-openzeppelin-contracts/2296[forum post] for more information."
      },
      "getRoleMemberCount(bytes32)": {
        "details": "Returns the number of accounts that have `role`. Can be used together with {getRoleMember} to enumerate all bearers of a role."
      },
      "grantRole(bytes32,address)": {
        "details": "Grants `role` to `account`.     * If `account` had not been already granted `role`, emits a {RoleGranted} event.     * Requirements:     * - the caller must have ``role``'s admin role."
      },
      "hasRole(bytes32,address)": {
        "details": "Returns `true` if `account` has been granted `role`."
      },
      "renounceRole(bytes32,address)": {
        "details": "Revokes `role` from the calling account.     * Roles are often managed via {grantRole} and {revokeRole}: this function's purpose is to provide a mechanism for accounts to lose their privileges if they are compromised (such as when a trusted device is misplaced).     * If the calling account had been granted `role`, emits a {RoleRevoked} event.     * Requirements:     * - the caller must be `account`."
      },
      "revokeRole(bytes32,address)": {
        "details": "Revokes `role` from `account`.     * If `account` had been granted `role`, emits a {RoleRevoked} event.     * Requirements:     * - the caller must have ``role``'s admin role."
      }
    }
  },
  "userdoc": {
    "methods": {}
  },
  "storageLayout": {
    "storage": [
      {
        "astId": 8123,
        "contract": "ontracts/streams/Stream.sol:Stream",
        "label": "_roles",
        "offset": 0,
        "slot": "0",
        "type": "t_mapping(t_bytes32,t_struct(RoleData)8119_storage)"
      },
      {
        "astId": 11734,
        "contract": "ontracts/streams/Stream.sol:Stream",
        "label": "streams",
        "offset": 0,
        "slot": "1",
        "type": "t_mapping(t_uint256,t_struct(Stream)12712_storage)"
      },
      {
        "astId": 11736,
        "contract": "ontracts/streams/Stream.sol:Stream",
        "label": "nextStreamId",
        "offset": 0,
        "slot": "2",
        "type": "t_uint256"
      }
    ],
    "types": {
      "t_address": {
        "encoding": "inplace",
        "label": "address",
        "numberOfBytes": "20"
      },
      "t_array(t_bytes32)dyn_storage": {
        "base": "t_bytes32",
        "encoding": "dynamic_array",
        "label": "bytes32[]",
        "numberOfBytes": "32"
      },
      "t_bool": {
        "encoding": "inplace",
        "label": "bool",
        "numberOfBytes": "1"
      },
      "t_bytes32": {
        "encoding": "inplace",
        "label": "bytes32",
        "numberOfBytes": "32"
      },
      "t_enum(StreamType)12691": {
        "encoding": "inplace",
        "label": "enum Types.StreamType",
        "numberOfBytes": "1"
      },
      "t_mapping(t_bytes32,t_struct(RoleData)8119_storage)": {
        "encoding": "mapping",
        "key": "t_bytes32",
        "label": "mapping(bytes32 => struct AccessControl.RoleData)",
        "numberOfBytes": "32",
        "value": "t_struct(RoleData)8119_storage"
      },
      "t_mapping(t_bytes32,t_uint256)": {
        "encoding": "mapping",
        "key": "t_bytes32",
        "label": "mapping(bytes32 => uint256)",
        "numberOfBytes": "32",
        "value": "t_uint256"
      },
      "t_mapping(t_uint256,t_struct(Stream)12712_storage)": {
        "encoding": "mapping",
        "key": "t_uint256",
        "label": "mapping(uint256 => struct Types.Stream)",
        "numberOfBytes": "32",
        "value": "t_struct(Stream)12712_storage"
      },
      "t_struct(AddressSet)9872_storage": {
        "encoding": "inplace",
        "label": "struct EnumerableSet.AddressSet",
        "members": [
          {
            "astId": 9871,
            "contract": "ontracts/streams/Stream.sol:Stream",
            "label": "_inner",
            "offset": 0,
            "slot": "0",
            "type": "t_struct(Set)9692_storage"
          }
        ],
        "numberOfBytes": "64"
      },
      "t_struct(RoleData)8119_storage": {
        "encoding": "inplace",
        "label": "struct AccessControl.RoleData",
        "members": [
          {
            "astId": 8116,
            "contract": "ontracts/streams/Stream.sol:Stream",
            "label": "members",
            "offset": 0,
            "slot": "0",
            "type": "t_struct(AddressSet)9872_storage"
          },
          {
            "astId": 8118,
            "contract": "ontracts/streams/Stream.sol:Stream",
            "label": "adminRole",
            "offset": 0,
            "slot": "2",
            "type": "t_bytes32"
          }
        ],
        "numberOfBytes": "96"
      },
      "t_struct(Set)9692_storage": {
        "encoding": "inplace",
        "label": "struct EnumerableSet.Set",
        "members": [
          {
            "astId": 9687,
            "contract": "ontracts/streams/Stream.sol:Stream",
            "label": "_values",
            "offset": 0,
            "slot": "0",
            "type": "t_array(t_bytes32)dyn_storage"
          },
          {
            "astId": 9691,
            "contract": "ontracts/streams/Stream.sol:Stream",
            "label": "_indexes",
            "offset": 0,
            "slot": "1",
            "type": "t_mapping(t_bytes32,t_uint256)"
          }
        ],
        "numberOfBytes": "64"
      },
      "t_struct(Stream)12712_storage": {
        "encoding": "inplace",
        "label": "struct Types.Stream",
        "members": [
          {
            "astId": 12693,
            "contract": "ontracts/streams/Stream.sol:Stream",
            "label": "startTime",
            "offset": 0,
            "slot": "0",
            "type": "t_uint256"
          },
          {
            "astId": 12695,
            "contract": "ontracts/streams/Stream.sol:Stream",
            "label": "stopTime",
            "offset": 0,
            "slot": "1",
            "type": "t_uint256"
          },
          {
            "astId": 12697,
            "contract": "ontracts/streams/Stream.sol:Stream",
            "label": "deposit",
            "offset": 0,
            "slot": "2",
            "type": "t_uint256"
          },
          {
            "astId": 12699,
            "contract": "ontracts/streams/Stream.sol:Stream",
            "label": "ratePerSecond",
            "offset": 0,
            "slot": "3",
            "type": "t_uint256"
          },
          {
            "astId": 12701,
            "contract": "ontracts/streams/Stream.sol:Stream",
            "label": "remainingBalance",
            "offset": 0,
            "slot": "4",
            "type": "t_uint256"
          },
          {
            "astId": 12703,
            "contract": "ontracts/streams/Stream.sol:Stream",
            "label": "sender",
            "offset": 0,
            "slot": "5",
            "type": "t_address"
          },
          {
            "astId": 12705,
            "contract": "ontracts/streams/Stream.sol:Stream",
            "label": "tokenAddress",
            "offset": 0,
            "slot": "6",
            "type": "t_address"
          },
          {
            "astId": 12707,
            "contract": "ontracts/streams/Stream.sol:Stream",
            "label": "isEntity",
            "offset": 20,
            "slot": "6",
            "type": "t_bool"
          },
          {
            "astId": 12709,
            "contract": "ontracts/streams/Stream.sol:Stream",
            "label": "recipient",
            "offset": 0,
            "slot": "7",
            "type": "t_address"
          },
          {
            "astId": 12711,
            "contract": "ontracts/streams/Stream.sol:Stream",
            "label": "streamType",
            "offset": 20,
            "slot": "7",
            "type": "t_enum(StreamType)12691"
          }
        ],
        "numberOfBytes": "256"
      },
      "t_uint256": {
        "encoding": "inplace",
        "label": "uint256",
        "numberOfBytes": "32"
      }
    }
  },
  "gasEstimates": {
    "creation": {
      "codeDepositCost": "1710800",
      "executionCost": "infinite",
      "totalCost": "infinite"
    },
    "external": {
      "DEFAULT_ADMIN_ROLE()": "278",
      "STREAM_ADMIN()": "336",
      "STREAM_OPERATOR()": "379",
      "createStream(address,address,uint256,address,uint256,uint256)": "infinite",
      "getRoleAdmin(bytes32)": "1274",
      "getRoleMember(bytes32,uint256)": "infinite",
      "getRoleMemberCount(bytes32)": "1334",
      "getStream(uint256)": "infinite",
      "getStreamTokenAddress(uint256)": "1254",
      "grantRole(bytes32,address)": "infinite",
      "hasRole(bytes32,address)": "infinite",
      "nextStreamId()": "1073",
      "renounceRole(bytes32,address)": "infinite",
      "revokeRole(bytes32,address)": "infinite",
      "setStreamOperator(address)": "infinite",
      "withdraw(uint256,uint256,address)": "infinite"
    },
    "internal": {
      "_calculateBalanceAccrued(uint256)": "infinite",
      "_calculateBalanceRemaining(uint256)": "infinite",
      "_calculateDurationElapsed(uint256)": "infinite",
      "_calculateDurationRemaining(uint256)": "infinite",
      "_calculateRatePerSecond(uint256,uint256)": "infinite",
      "_hasStreamFinished(uint256)": "926",
      "_hasStreamStarted(uint256)": "926",
      "_isNonZeroLengthStream(uint256,uint256)": "infinite",
      "_isStreamRunning(uint256)": "1932"
    }
  }
}