{
  "address": "0xe7f1725E7734CE288F8367e1Bb143E90bb3F0512",
  "abi": [
    {
      "anonymous": false,
      "inputs": [
        {
          "indexed": true,
          "internalType": "address",
          "name": "previousOwner",
          "type": "address"
        },
        {
          "indexed": true,
          "internalType": "address",
          "name": "newOwner",
          "type": "address"
        }
      ],
      "name": "OwnershipTransferred",
      "type": "event"
    },
    {
      "inputs": [
        {
          "internalType": "address",
          "name": "_token",
          "type": "address"
        }
      ],
      "name": "balance",
      "outputs": [
        {
          "internalType": "uint256",
          "name": "",
          "type": "uint256"
        }
      ],
      "stateMutability": "view",
      "type": "function"
    },
    {
      "inputs": [
        {
          "internalType": "uint256",
          "name": "_streamId",
          "type": "uint256"
        },
        {
          "internalType": "uint256",
          "name": "_amount",
          "type": "uint256"
        }
      ],
      "name": "claimFromStream",
      "outputs": [],
      "stateMutability": "nonpayable",
      "type": "function"
    },
    {
      "inputs": [],
      "name": "owner",
      "outputs": [
        {
          "internalType": "address",
          "name": "",
          "type": "address"
        }
      ],
      "stateMutability": "view",
      "type": "function"
    },
    {
      "inputs": [],
      "name": "renounceOwnership",
      "outputs": [],
      "stateMutability": "nonpayable",
      "type": "function"
    },
    {
      "inputs": [
        {
          "internalType": "address",
          "name": "_stream",
          "type": "address"
        }
      ],
      "name": "setStream",
      "outputs": [],
      "stateMutability": "nonpayable",
      "type": "function"
    },
    {
      "inputs": [
        {
          "internalType": "address",
          "name": "_treasury",
          "type": "address"
        }
      ],
      "name": "setTreasury",
      "outputs": [],
      "stateMutability": "nonpayable",
      "type": "function"
    },
    {
      "inputs": [
        {
          "internalType": "address",
          "name": "_token",
          "type": "address"
        },
        {
          "internalType": "address",
          "name": "_recipient",
          "type": "address"
        },
        {
          "internalType": "uint256",
          "name": "_amount",
          "type": "uint256"
        },
        {
          "internalType": "uint256",
          "name": "_start",
          "type": "uint256"
        },
        {
          "internalType": "uint256",
          "name": "_stop",
          "type": "uint256"
        }
      ],
      "name": "startStream",
      "outputs": [],
      "stateMutability": "nonpayable",
      "type": "function"
    },
    {
      "inputs": [
        {
          "internalType": "address",
          "name": "newOwner",
          "type": "address"
        }
      ],
      "name": "transferOwnership",
      "outputs": [],
      "stateMutability": "nonpayable",
      "type": "function"
    },
    {
      "inputs": [
        {
          "internalType": "uint256",
          "name": "_streamId",
          "type": "uint256"
        },
        {
          "internalType": "uint256",
          "name": "_amount",
          "type": "uint256"
        },
        {
          "internalType": "address",
          "name": "_recipient",
          "type": "address"
        }
      ],
      "name": "withdrawFromStream",
      "outputs": [],
      "stateMutability": "nonpayable",
      "type": "function"
    }
  ],
  "transactionHash": "0x8c2510bf61cb131bb5744b6e4f6cb847a40ca631fc86782aa036504d9c6904ff",
  "args": [],
  "solcInputHash": "4d1da20ce8e5a1728b05b26911692c01",
  "bytecode": "0x608060405234801561001057600080fd5b5060006100246001600160e01b0361007316565b600080546001600160a01b0319166001600160a01b0383169081178255604051929350917f8be0079c531659141344cd1fd0a4f28419497f9722a3daafe3b4186f6b6457e0908290a350610077565b3390565b610b65806100866000396000f3fe608060405234801561001057600080fd5b50600436106100935760003560e01c8063ddfb783b11610066578063ddfb783b1461011b578063e025494c1461015d578063e3d670d714610183578063f0f44260146101bb578063f2fde38b146101e157610093565b8063715018a614610098578063838f4a65146100a25780638da5cb5b146100c55780639288d4c0146100e9575b600080fd5b6100a0610207565b005b6100a0600480360360408110156100b857600080fd5b50803590602001356102a9565b6100cd610487565b604080516001600160a01b039092168252519081900360200190f35b6100a0600480360360608110156100ff57600080fd5b50803590602081013590604001356001600160a01b0316610496565b6100a0600480360360a081101561013157600080fd5b506001600160a01b03813581169160208101359091169060408101359060608101359060800135610671565b6100a06004803603602081101561017357600080fd5b50356001600160a01b031661084e565b6101a96004803603602081101561019957600080fd5b50356001600160a01b03166108c8565b60408051918252519081900360200190f35b6100a0600480360360208110156101d157600080fd5b50356001600160a01b0316610951565b6100a0600480360360208110156101f757600080fd5b50356001600160a01b03166109cb565b61020f610ac3565b6000546001600160a01b0390811691161461025f576040805162461bcd60e51b81526020600482018190526024820152600080516020610aee833981519152604482015290519081900360640190fd5b600080546040516001600160a01b03909116907f8be0079c531659141344cd1fd0a4f28419497f9722a3daafe3b4186f6b6457e0908390a3600080546001600160a01b0319169055565b6002546040805163894e9a0d60e01b8152600481018590529051600092839283926001600160a01b039092169163894e9a0d9160248082019261012092909190829003018186803b1580156102fd57600080fd5b505afa158015610311573d6000803e3d6000fd5b505050506040513d61012081101561032857600080fd5b508051602082015160609092015190945090925090506001600160a01b0382163314610393576040805162461bcd60e51b815260206004820152601560248201527413db9b1e4814dd1c99585b48149958da5c1a595b9d605a1b604482015290519081900360640190fd5b60025460408051630ad58d2f60e01b8152600481018890526024810187905233604482015290516001600160a01b0390921691630ad58d2f9160648082019260009290919082900301818387803b1580156103ed57600080fd5b505af1158015610401573d6000803e3d6000fd5b5050600154604080516308a7029760e41b81526001600160a01b0386811660048301528881166024830152336044830152606482018a90529151919092169350638a7029709250608480830192600092919082900301818387803b15801561046857600080fd5b505af115801561047c573d6000803e3d6000fd5b505050505050505050565b6000546001600160a01b031690565b6002546040805163894e9a0d60e01b8152600481018690529051600092839283926001600160a01b039092169163894e9a0d9160248082019261012092909190829003018186803b1580156104ea57600080fd5b505afa1580156104fe573d6000803e3d6000fd5b505050506040513d61012081101561051557600080fd5b50805160208201516060909201519094509092509050336001600160a01b0383161461057a576040805162461bcd60e51b815260206004820152600f60248201526e4e6f7420796f75722073747265616d60881b604482015290519081900360640190fd5b60025460408051630ad58d2f60e01b8152600481018990526024810188905233604482015290516001600160a01b0390921691630ad58d2f9160648082019260009290919082900301818387803b1580156105d457600080fd5b505af11580156105e8573d6000803e3d6000fd5b505060015460408051630b620b8160e01b81526001600160a01b03868116600483015288811660248301528981166044830152606482018b90529151919092169350630b620b819250608480830192600092919082900301818387803b15801561065157600080fd5b505af1158015610665573d6000803e3d6000fd5b50505050505050505050565b60015460408051633a5d3e8360e11b81526001600160a01b038881166004830152336024830152915160009392909216916374ba7d0691604480820192602092909190829003018186803b1580156106c857600080fd5b505afa1580156106dc573d6000803e3d6000fd5b505050506040513d60208110156106f257600080fd5b50519050838110156107355760405162461bcd60e51b8152600401808060200182810382526022815260200180610b0e6022913960400191505060405180910390fd5b6001546040805163c7e293d960e01b81526001600160a01b038981166004830152336024830152604482018890529151919092169163c7e293d991606480830192600092919082900301818387803b15801561079057600080fd5b505af11580156107a4573d6000803e3d6000fd5b505060025460408051633f56784d60e21b81523360048201526001600160a01b038a81166024830152604482018a90528b811660648301526084820189905260a48201889052915191909216935063fd59e134925060c48083019260209291908290030181600087803b15801561081a57600080fd5b505af115801561082e573d6000803e3d6000fd5b505050506040513d602081101561084457600080fd5b5050505050505050565b610856610ac3565b6000546001600160a01b039081169116146108a6576040805162461bcd60e51b81526020600482018190526024820152600080516020610aee833981519152604482015290519081900360640190fd5b600280546001600160a01b0319166001600160a01b0392909216919091179055565b60015460408051633a5d3e8360e11b81523360048201526001600160a01b038481166024830152915160009392909216916374ba7d0691604480820192602092909190829003018186803b15801561091f57600080fd5b505afa158015610933573d6000803e3d6000fd5b505050506040513d602081101561094957600080fd5b505192915050565b610959610ac3565b6000546001600160a01b039081169116146109a9576040805162461bcd60e51b81526020600482018190526024820152600080516020610aee833981519152604482015290519081900360640190fd5b600180546001600160a01b0319166001600160a01b0392909216919091179055565b6109d3610ac3565b6000546001600160a01b03908116911614610a23576040805162461bcd60e51b81526020600482018190526024820152600080516020610aee833981519152604482015290519081900360640190fd5b6001600160a01b038116610a685760405162461bcd60e51b8152600401808060200182810382526026815260200180610ac86026913960400191505060405180910390fd5b600080546040516001600160a01b03808516939216917f8be0079c531659141344cd1fd0a4f28419497f9722a3daafe3b4186f6b6457e091a3600080546001600160a01b0319166001600160a01b0392909216919091179055565b339056fe4f776e61626c653a206e6577206f776e657220697320746865207a65726f20616464726573734f776e61626c653a2063616c6c6572206973206e6f7420746865206f776e65724e6f7420656e6f7567682062616c616e636520746f2073746172742073747265616da26469706673582212205a71526d75dc423c958ba4afbc81f6b28fd553dec9327f53b991d3ebc6e9826864736f6c63430006080033",
  "devdoc": {
    "methods": {
      "owner()": {
        "details": "Returns the address of the current owner."
      },
      "renounceOwnership()": {
        "details": "Leaves the contract without owner. It will not be possible to call `onlyOwner` functions anymore. Can only be called by the current owner.     * NOTE: Renouncing ownership will leave the contract without an owner, thereby removing any functionality that is only available to the owner."
      },
      "transferOwnership(address)": {
        "details": "Transfers ownership of the contract to a new account (`newOwner`). Can only be called by the current owner."
      }
    }
  },
  "userdoc": {
    "methods": {}
  },
  "storageLayout": {
    "storage": [
      {
        "astId": 313,
        "contract": "contracts/streams/StreamManager.sol:StreamManager",
        "label": "_owner",
        "offset": 0,
        "slot": "0",
        "type": "t_address"
      },
      {
        "astId": 4192,
        "contract": "contracts/streams/StreamManager.sol:StreamManager",
        "label": "treasury",
        "offset": 0,
        "slot": "1",
        "type": "t_contract(Treasury)2570"
      },
      {
        "astId": 4194,
        "contract": "contracts/streams/StreamManager.sol:StreamManager",
        "label": "stream",
        "offset": 0,
        "slot": "2",
        "type": "t_contract(Stream)4183"
      }
    ],
    "types": {
      "t_address": {
        "encoding": "inplace",
        "label": "address",
        "numberOfBytes": "20"
      },
      "t_contract(Stream)4183": {
        "encoding": "inplace",
        "label": "contract Stream",
        "numberOfBytes": "20"
      },
      "t_contract(Treasury)2570": {
        "encoding": "inplace",
        "label": "contract Treasury",
        "numberOfBytes": "20"
      }
    }
  }
}